:020000020000FC
:0200000003C03B
:1000060073C00FE50DBF0FE107BB002708BB002734
:100016000FBD0DE70EBD00E409BF05B7006105BFC2
:10002600552400E000936000789420916000203011
:1000360069F4C49AC09A69D03E3109F04EC0C0989E
:1000460001E0009360005AD0E89447C0213089F45B
:100056005CD0323029F0C09A5CD0C0985AD03DC0EE
:10006600C198052D0A30D4F502E00093600046D011
:1000760034C02230A9F4C19A48D0323009F02DC0DC
:10008600C1980EF006C0C398539400E00093600038
:1000960024C0C498C39A03E0009360002FD01DC00B
:1000A600233059F4C29A31D03E3109F016C0C298B5
:1000B60004E00093600022D010C0243071F425D0F3
:1000C600323029F0C29A25D0C29823D006C0C298F1
:1000D60002E000936000689411D0A7CF05B70062D4
:1000E60005BF002708BB88950F931F930FB733955D
:1000F60011271FBD0FBF1F910F91189500B7047FE1
:1001060000BF00270FBD302F089500B70B6000BF5A
:1001160008950F931F931CE306E90A95F1F71A95C4
:08012600D9F71F910F91089514
:00000001FF
